:100000000C9449050C9471050C9471050C947105C0
:100010000C9471050C9471050C9471050C94710588
:100020000C9471050C9471050C947F0D0C94EE0DDD
:100030000C9471050C9471050C9471050C94710568
:100040000C9471050C9471050C9471050C94710558
:100050000C9471050C9471050C9471050C9420108E
:100060000C9471050C9471050C9471050C94710538
:100070000C9471050C9471050C9471050C94710528
:100080000C9471050C9471050C9471050C94710518
:100090000C9471050C9471050C9471050C94710508
:1000A0000C9471050C9471050C94710508087EE799
:1000B000E7E7E7E7E77E08087EFFFF8181FFFF7E35
:1000C00008087EFFCFCFF3F3FF7E08087EFFF3F32F
:1000D000CFCFFF7E08087EC3C3FFFFC3C37E0808DF
:1000E0007EFF99999999FF7E08087EFFCFC7E3F3B9
:1000F000FF7E08087EFFF3E3C7CFFF7E08087EFF80
:10010000C3C3C3C3FE7E08087EE7E78181E7E77EBD
:100110000C10000000000000804020202020000083
:100120000000000F0000000000000C102020204004
:10013000800000000000000000000000000F000030
:10014000000000000C100000000000070810202034
:1001500020200000000000000000000000000C1043
:100160002020201008070000000000000000000010
:1001700000000000000000000C100000000000FF64
:1001800000000000000000000000000F0000000060
:1001900000000C10202020202020202020202020C3
:1001A00000000000000000000000000007088000C0
:1001B000800080FFFFFFFFFFFFFFFFFFFFFFFF1F2C
:1001C0001F1F1F1F1F1F1F1F1F1F1F0000000000DA
:1001D0003E5B4F5B3E3E6B4F6B3E1C3E7C3E1C18B5
:1001E0003C7E3C181C577D571C1C5E7F5E1C001813
:1001F0003C1800FFE7C3E7FF0018241800FFE7DB07
:10020000E7FF30483A060E2629792926407F050562
:1002100007407F05253F5A3CE73C5A7F3E1C1C089F
:10022000081C1C3E7F14227F22145F5F005F5F0664
:10023000097F017F006689956A606060606094A2B2
:10024000FFA29408047E040810207E201008082ACB
:100250001C08081C2A08081E101010100C1E0C1E6A
:100260000C30383E3830060E3E0E0600000000000E
:1002700000005F00000007000700147F147F1424B3
:100280002A7F2A1223130864623649562050000838
:10029000070300001C2241000041221C002A1C7F91
:1002A0001C2A08083E08080080703000080808086A
:1002B00008000060600020100804023E5149453EDD
:1002C00000427F400072494949462141494D331857
:1002D00014127F1027454545393C4A49493141218F
:1002E0001109073649494936464949291E00001473
:1002F00000000040340000000814224114141414BB
:1003000014004122140802015909063E415D594E6C
:100310007C1211127C7F494949363E414141227F7E
:100320004141413E7F494949417F090909013E4117
:100330004151737F0808087F00417F410020404100
:100340003F017F081422417F404040407F021C0251
:100350007F7F0408107F3E4141413E7F0909090625
:100360003E4151215E7F09192946264949493203F8
:10037000017F01033F4040403F1F2040201F3F407E
:1003800038403F6314081463030478040361594937
:100390004D43007F4141410204081020004141418A
:1003A0007F0402010204404040404000030708006F
:1003B00020545478407F28444438384444442838F2
:1003C0004444287F385454541800087E090218A465
:1003D000A49C787F0804047800447D4000204040BD
:1003E0003D007F1028440000417F40007C047804D9
:1003F000787C080404783844444438FC18242418D1
:1004000018242418FC7C0804040848545454240478
:10041000043F44243C4040207C1C2040201C3C40A5
:1004200030403C44281028444C9090907C446454C4
:100430004C440008364100000077000000413608B7
:100440000002010204023C2623263C1EA1A16112E7
:100450003A4040207A385454555921555579412114
:1004600054547841215554784020545579400C1EFD
:1004700052721239555555593954545459395554A5
:1004800054580000457C410002457D420001457CF6
:1004900040F0292429F0F0282528F07C5455450007
:1004A0002054547C547C0A097F49324949493232EC
:1004B00048484832324A4848303A4141217A3A4223
:1004C000402078009DA0A07D39444444393D4040FF
:1004D000403D3C24FF2424487E4943662B2FFC2FBB
:1004E0002BFF0929F620C0887E0903205454794146
:1004F0000000447D413048484A32384040227A006A
:100500007A0A0A727D0D19317D2629292F2826297C
:1005100029292630484D40203808080808080808CE
:1005200008382F10C8ACBA2F102834FA00007B000E
:100530000008142A142222142A1408950022009577
:10054000AA005500AAAA55AA55AA000000FF00104B
:100550001010FF00141414FF001010FF00FF101003
:10056000F010F0141414FC001414F700FF0000FF46
:1005700000FF1414F404FC141417101F10101F10A3
:100580001F1414141F00101010F0000000001F10A2
:100590001010101F10101010F010000000FF1010AD
:1005A00010101010101010FF10000000FF140000B9
:1005B000FF00FF00001F10170000FC04F4141417C4
:1005C00010171414F404F40000FF00F714141414AA
:1005D000141414F700F7141414171410101F101F1C
:1005E000141414F4141010F010F000001F101F0069
:1005F00000001F14000000FC140000F010F01010A8
:10060000FF10FF141414FF141010101F000000003E
:10061000F010FFFFFFFFFFF0F0F0F0F0FFFFFF0032
:1006200000000000FFFF0F0F0F0F0F384444384445
:100630007C2A2A3E147E02020606027E027E0263A5
:10064000554941633844443C04407E201E20060244
:100650007E020299A5E7A5991C2A492A1C4C720121
:10066000724C304A4D4D303048784830BC625A4662
:100670003D3E494949007E0101017E2A2A2A2A2A53
:1006800044445F444440514A444040444A5140003D
:1006900000FF0103E080FF000008086B6B083612C2
:1006A000362436060F090F06000018180000001047
:1006B00010003040FF0101001F01011E00191D172D
:1006C00012003C3C3C3C0000000000F0F89C8E878F
:1006D00083878E9CF8F00000FEFF030303030307EB
:1006E0000EFCF80000FEFF0303030303070EFCF8F3
:1006F0000000FFFF00000000000000FFFF0000FE00
:10070000FF8383838383C7EE7C380000F8FC0E07E9
:10071000030303070EFCF800003F7FE0C08080C0A9
:10072000E07F3FFFFF01010101010101FFFF000028
:10073000FFFF0C0C0C0C1C3E77E3C100007FFFC0D8
:10074000C0C0C0C0E0703F1F00001F3F70E0C0C0CD
:10075000C0E0703F1F00007FFFC1C1C1C1C1E3778E
:100760003E1C00001F3F70E0C0C0C0E0703F1F0093
:100770000000000001FFFF01000000D5F08D14A172
:10078000C881CFD9F1AF2000541800006C6C000C68
:100790000C00000000006C6C000C0C000C0C0060E5
:1007A0006000000C0C006C6C000C0C0000006C6C09
:1007B000000C0C000C0C00606000006C6C000C0C59
:1007C000000C0C000C0C00006060000C0C000C0C09
:1007D000006060000000000C0C006C6C0000000069
:1007E000DBDB0000000000000000DBDB001818006D
:1007F00018180003030000000000DBDB000000000D
:100800000000DBDB0018180018180003030000DBF1
:10081000DB0018180018180000000000030300187F
:100820001800181800C0C000000000000000DBDB4A
:100830000000000036360030300000000000363680
:1008400000000000000000000000003030003636DC
:1008500000303000000036360000000000000000CC
:1008600000000036360030300030300030300000FC
:100870000606003030003030000606000000003070
:100880003000363600001010FC04FC0808FF0000A1
:1008900000000000FF0808080F080F0404FF000014
:1008A00000000000FF040404101008080808080FE6
:1008B0000808080808080F0808080404040404FCD1
:1008C000040404040404FC0404041010FC04FC08E4
:1008D000080F0808080808080F0808080F080F0480
:1008E00004FC040404040404FC04040410100000C8
:1008F000000000FF000000000000FF0000000000FA
:100900000000E0BFA0A0A0A0A0A0BFE000001010C9
:10091000000000000000C0201010080808080808A7
:1009200000000000E0BFA0A0A0A0A0A0B8E40404C4
:100930001010FC04FC080808080808080808080843
:1009400008080F080F040404040404040404040445
:10095000040410100808080808080808080808080F
:100960000808080804040404040404040404040437
:10097000040404041010FC04FC0808080808101003
:1009800020C0000000000F080F04E4B8A0A0A0A041
:10099000A0A0BFE00000101000000000003FC00059
:1009A0000000000007080808000000000000000127
:1009B00002020404040404041010FC04FC080807E8
:1009C0000000000000C03F0000000F080F040404F6
:1009D00004040202010000000000101000000000EA
:1009E00000FF000000000000FF0000000000000009
:1009F00000FF000000000000FF00000010000000E9
:100A00000000004000243010300020102040003052
:100A100050000000020400013500080B0002020231
:100A2000000009040000010202000005240010017A
:100A3000052401010104240206052406000107051E
:100A4000810310004009040100020A0000000705AC
:100A5000020240000007058302400000040309046D
:100A600012010002EF020140412336800001010221
:100A7000030141726475696E6F204C4C43004172F2
:100A80006475696E6F204C656F6E6172646F0000F3
:100A9000E21011241FBECFEFDAE0DEBFCDBF11E0C0
:100AA000A0E0B1E0E8E1F3E302C005900D92AA36C0
:100AB000B107D9F726E0AAE6B1E001C01D92AC3437
:100AC000B207E1F715E0C9E4D5E004C02197FE01C3
:100AD0000E947F19C834D107C9F70E9413110C94E2
:100AE0008A190C94000080E0E5EEF1E081118FEFAF
:100AF000002481938193819381930394D1F7089586
:100B0000E5EEF1E0A0E0B8E000800EBC8111012C20
:100B10001197A0FDFDCF0192B9F70DB40895AC0176
:100B20008038910564F59C01245F3F4F21383105E1
:100B300014F020E830E0241BCB018770992791E066
:100B400001C0990F8A95EAF777FF02C0695F7F4F6E
:100B5000FB0183E0F595E7958A95E1F7F695FE2F81
:100B6000EE27F795E795E40FF51FEB51FE4F215067
:100B700030F08191DF011197892B8C93F8CF089584
:100B800090913F06982329F490913E06982381E0A6
:100B900009F480E00895FC018091E401882311F1BB
:100BA0003FB7F89482E08093E9002091F200822F11
:100BB00090E01816190614F481E090E0882339F0CB
:100BC000289844E64093E3014091F10040832223BA
:100BD00039F02091F200211103C02BE62093E800A8
:100BE0003FBF08958FEF9FEF08952FB7F89483E0EC
:100BF0008093E9009091E800892F807295FF04C0EE
:100C00009091F20080E4891B2FBF08958091DB0151
:100C100081110DC082E08093D70184E08093D801D8
:100C20001092DA011092D90181E08093DB0187ED07
:100C300091E00895CF93DF931F92CDB7DEB769831C
:100C4000DC01ED91FC910280F381E02D41E050E068
:100C5000BE016F5F7F4F09950F90DF91CF9108958F
:100C600083E08093E9008091F200882319F08AE301
:100C70008093E80008950E94F50590E00895CF93D1
:100C8000DF931F92CDB7DEB7FC018485958597FD74
:100C900008C02FEF3FEF358724870F90DF91CF916A
:100CA0000895CE0101960E94CB05019719F4898120
:100CB00090E0F3CF8FEF9FEFF0CF0F931F93CF9381
:100CC000DF931F92CDB7DEB78C01FC01848595853B
:100CD00097FF0BC0CE0101960E94CB05019771F4DE
:100CE000898190E0F80195878487F801848595854E
:100CF0000F90DF91CF911F910F9108958FEF9FEF8C
:100D0000F1CFFC018485958597FD0BC09FB7F894C2
:100D100082E08093E9008091F2009FBF90E001960D
:100D200008959FB7F89482E08093E9008091F200E3
:100D30009FBF90E008954091D1015091D201209140
:100D4000CF013091D00142175307B4F49091E800DD
:100D50009570E1F39091E80092FD19C08093F10045
:100D60008091D1019091D20101968F739927892B9F
:100D700019F48EEF8093E8008091D1019091D20117
:100D800001969093D2018093D10181E0089580E093
:100D90000895DF92EF92FF920F931F93CF93DF930B
:100DA000D82E8A01EB017B01E40EF51ECE15DF057E
:100DB00059F0D7FE12C0FE0184910E949B06219635
:100DC0008111F4CF0FEF1FEFC801DF91CF911F9179
:100DD0000F91FF90EF90DF9008958881EECF0F93F1
:100DE0001F93CF93DF931F92CDB7DEB782E0898345
:100DF00042E450E06AE17AE080E80E94C9060E947D
:100E00000606DC0112960D911C910115110589F061
:100E1000D801ED91FC910280F381E02DBE016F5F5E
:100E20007F4FC801099597FD04C0F8010085118521
:100E3000ECCF89810F90DF91CF911F910F91089591
:100E4000615030F02091F100FC0120830196F8CF31
:100E5000289884E68093E3010895AF92BF92CF92E1
:100E6000DF92EF92FF920F931F93CF93DF936C016A
:100E70007B018B01040F151FEB015E01AE18BF084B
:100E8000C017D10759F06991D601ED91FC910190FD
:100E9000F081E02DC6010995892B79F7C501DF9115
:100EA000CF911F910F91FF90EF90DF90CF90BF9067
:100EB000AF9008953FB7F89480916F0190917001C1
:100EC000A0917101B091720126B5A89B05C02F3F7A
:100ED00019F00196A11DB11D3FBFBA2FA92F982F60
:100EE0008827BC01CD01620F711D811D911D42E05B
:100EF000660F771F881F991F4A95D1F708958F9223
:100F00009F92AF92BF92CF92DF92EF92FF926B01CE
:100F10007C010E945A074B015C01C114D104E10419
:100F2000F104B9F00E945A07681979098A099B09E6
:100F3000683E73408105910580F321E0C21AD10813
:100F4000E108F10888EE880E83E0981EA11CB11C10
:100F5000E4CFFF90EF90DF90CF90BF90AF909F9045
:100F60008F9008958F929F92AF92BF92CF92DF920F
:100F7000EF92FF920F931F93CF93DF936C017B014E
:100F80008A0180910B01882309F45CC08091E401FF
:100F9000882309F457C08091D60180FF05C0809155
:100FA000E00082608093E000E801B12C8AEFA82E77
:100FB00093E0892E2AE3922E209711F4BB20D9F1D9
:100FC0000E94F50581110AC0AA94AA20D9F161E016
:100FD00070E080E090E00E947F07EECF8C171D0646
:100FE00011F00CF08C2F9FB7F8948092E9002091BB
:100FF000E80025FD02C09FBFDFCF282F30E0C21BD5
:10100000D30BF701815020F041914093F100FACFCA
:10101000E20EF31EBB2021F09092E800B12CEBCF42
:101020008091E80085FDE7CF9092E800BB24B3945F
:10103000209709F3F3CF5D9884E68093D5011016CD
:1010400011063CF081E090E0F6019383828310E08A
:1010500000E0C801DF91CF911F910F91FF90EF90B9
:10106000DF90CF90BF90AF909F908F9008952F9278
:101070003F924F925F926F927F928F929F92AF9228
:10108000BF92CF92DF92EF92FF920F931F93CF9375
:10109000DF9300D000D01F92CDB7DEB75D834C83C5
:1010A0005901EC2D402F50E0DA01A80FB91F10971D
:1010B00009F445C0803891050CF041C09B012E0D0C
:1010C000311D232BE1F160347105CCF52C813D817C
:1010D000232BA9F1362F3770398313E07595679567
:1010E0001A95E1F7262FA038B10514F000E8081B87
:1010F000A1E0FE2DF77009F4A0E0E694E694E694F2
:10110000EA0EDB01AE0DB11D19971CF0F8E0EF2ED1
:10111000E61ADB01B695BA2FAA27B795A7958A0FCD
:101120009B1FF980AF2DFF0CBB0BE33009F435C1D9
:10113000F0F4E13009F4EEC0E23009F453C00F904E
:101140000F900F900F900F90DF91CF911F910F9103
:10115000FF90EF90DF90CF90BF90AF909F908F90D7
:101160007F906F905F904F903F902F900895EA3F4F
:1011700009F48CC0EB3F19F7E22FE61BEE15F8F6E9
:10118000FC01EB51FE4F6F01B12CA12CEC81FD81D4
:10119000A01608F0ACC0EA0DFB1D8490912C0A2E1D
:1011A00002C0880C991C0A94E2F727FD07C0F601DB
:1011B0007080F82DF0957F22F6017082F980FF2073
:1011C00051F0273044F4F601E058FF4F892C809409
:1011D0009080982090821FEFA11AB10A3FEFC31AA6
:1011E000D30AD4CF66246A94712C098002C0660C9D
:1011F000771C0A94E2F760947094572CE22FE61B58
:10120000EE1508F09CCFFC01EB51FE4F6F01B12CA5
:10121000A12CEC81FD81A01650F5EA0DFB1DE49197
:10122000F0E01F010A2E02C0220C331C0A94E2F7E0
:1012300027FD05C0F6019080962092289082F980C3
:10124000FF2071F0273064F4460110E8810E911CF4
:10125000F4014080E42DE5214E2E4328F401408224
:10126000FFEFAF1ABF0A1FEFC11AD10AD2CFE40FA6
:10127000F51FFD83EC8380589F4F2F5FBFCFE40F96
:10128000F51FFD83EC8380589F4F2F5FE22FE61BF5
:10129000EE1508F054CFFC01EB51FE4F6F01B12C5D
:1012A000A12CEC81FD81A01650F7EA0DFB1D849066
:1012B000912C0A2E02C0880C991C0A94E2F727FD93
:1012C00004C0F601708078287082F980FF2041F018
:1012D000273034F4F601E058FF4F80809828908240
:1012E0001FEFA11AB10A3FEFC31AD30ADACFE40FF6
:1012F000F51FFD83EC8380589F4F2F5F3DCFEC811E
:10130000FD81E40FF51FFD83EC83A40EB51E80580C
:101310009F4F2F5FE22FE61BEE1508F010CFFC0168
:10132000EB51FE4F6F01912C812C801640F7F50197
:10133000E80DF91D6490712C0A2E02C0660C771C12
:101340000A94E2F760947094EC81FD81E80DF91D38
:101350004490512C0A2E02C0440C551C0A94E2F70A
:1013600027FD08C0F6013080E32DE6213E2E34280B
:10137000F6013082F980FF2049F027303CF4F60175
:10138000E058FF4F60807620752870821FEF811A29
:10139000910A3FEFC31AD30AC8CFE02FF0E08B5178
:1013A0009E4FA0E8B0E06D01CE1ADF0A4E1B5F0B26
:1013B0004A01880C991CE1E0F0E05F01098002C05D
:1013C000AA0CBB1C0A94E2F7B02E402F5E2DEC81D4
:1013D000FD81DC0186019401F980CF93DF93ED015B
:1013E000EF96EF96229665908590FF2059F06A9CC3
:1013F00030018A9C400167302CF4C8809094C92049
:10140000C728C99266233AF0CC908094C820C62899
:10141000CD920C940C0A11964A9529F75A9551F0E1
:101420004B2D63951124E20FF11DA00FB11DC00FCC
:10143000D11DD9CFDF91CF91112481CECF92EF92E0
:101440000F934115510541F1FA0104913196E49051
:101450004E5F5F4F2223D1F0A1E0B0E03E2D377008
:1014600011F4B0E0A0E0EE2DE695E695E695EA0FE2
:10147000FB2FF11D0E9FD0010F9FB00D11242A9F4D
:10148000F0012B9FF00D11244E0F5F1F22E0C22EA2
:1014900030E020E00E9437080F91EF90CF90089540
:1014A0002D9A0895BC0190E080E00C947F078FB1E5
:1014B0008095807F669B88601C9B8460089580383F
:1014C0009105B8F460347105A0F420E191E061FD6C
:1014D00094E060FD990F62FD9295687F269FD00190
:1014E0001124A80FAB51BE4F8C9140FF03C0892B34
:1014F0008C93089590958923FBCF2F923F924F9222
:101500005F926F927F928F929F92AF92BF92CF9293
:10151000DF92EF92FF920F931F93CF93DF93CDB79C
:10152000DEB72A970FB6F894DEBF0FBECDBF9A8301
:1015300089836A3061F5DC0155968C91B8E08B9F08
:1015400090011124E981FA8181899289820F931F88
:10155000928B818B108A178681E090E02A960FB6D5
:10156000F894DEBF0FBECDBFDF91CF911F910F91D9
:10157000FF90EF90DF90CF90BF90AF909F908F90B3
:101580007F906F905F904F903F902F9008956D30B7
:1015900019F329813A813A872987D9011F96AD909D
:1015A000BC90B0E8AB16B1040CF07BC0F901C18867
:1015B000D288F0E4CF16D1040CF073C0D90155964F
:1015C0006C90559745E09501649E200D311D1124C6
:1015D000121613060CF065C0262C312C910153E035
:1015E000220F331F5A95E1F72C0D3D1D12161306DD
:1015F0000CF057C05496BC91BB83E985FA85F389FA
:10160000FC83649FB00111249B0125533E4F3A8314
:101610002983712CE981FA818491F5E07F1201C060
:1016200080E0460138E0532E282F30E03E832D83A2
:101630004C8080FF4B80411004C03B818C81381767
:10164000E1F010E000E00615C0F4D501A00FB11FD5
:10165000B887AF83F12CE12CE61460F4B701680D74
:10166000791D442D8F8198850E945F0ABFEFEB1A88
:10167000FB0AF2CF0F5F1F4FE6CF8D819E819595BC
:1016800087955A94820C931C5110CECF7394E981A4
:10169000FA813196FA83E983A20CB31CF6E07F123B
:1016A000B9CFA985BA8555962C915597422F50E010
:1016B0001F968D919C91B6E02B9F800D911D11245A
:1016C000E985FA85908B87872689222309F444CF00
:1016D0006AEF64039001659F300D112420583F4F3D
:1016E000281739070CF038CFDF010190F081E02D89
:1016F0000190F081E02D6AE0CD0109952DCF08958C
:10170000089590E080E008956091750170917401F2
:1017100023E731E040E0641791F090E080E0871724
:1017200050F4F901E80FF91F54815F7001965111CF
:10173000F6CF80E008954F5F275F3F4FECCF81E009
:101740000895E8ECF1E015821382148208957091F7
:101750007501A091740143E751E060E07617B9F09C
:1017600030E020E02A1778F4FA01E20FF31F9481A9
:10177000B92FBF708B1304C0907F903F09F0148283
:101780002F5F3F4FEFCF6F5F475F5F4FE7CF08950A
:101790004F925F926F927F928F929F92AF92BF9281
:1017A000CF92DF92EF92FF920F931F93CF93DF932D
:1017B0000E94730510924706109246061092450645
:1017C0001092440653E7A52E51E0B52E4501712C29
:1017D000612C512C412C1BE0C0917501D0E04C16BE
:1017E0005D060CF03BC0D0E0C0E0809174018C1726
:1017F0001D0651F14CF1F401EC0FFD1FE4818E2F19
:10180000807F01F1803FF1F0E295EF70F0E0EE0FA4
:10181000FF1FEE5DFE4F408151814115510591F052
:10182000FA0104913196E4904E5F5F4FCC24C3944B
:1018300023EB31E0B3011C9FC0011D9F900D1124CB
:101840000E9437082196D1CFFFEF4F1A5F0A8BE035
:10185000680E711CE9E08E0E911CBECF22E0E22ED4
:10186000F12CD12CC12C3BE0932ECC15DD0579F168
:1018700010E000E08091740180171106F1F0ECF0A7
:10188000F501E00FF11FE4818E2F807F803F91F4FE
:10189000EF70F0E0EE0FFF1FE45FFE4F40815181DB
:1018A000909EC001919E900D112420E0B7010296F8
:1018B0000E941E0A0F5F1F4FDDCFFFEFCF1ADF0A16
:1018C00089E0A80EB11CEBE0EE0EF11CCECFF12C9E
:1018D000E12C10E000E0D12CC12CB12CA12C809186
:1018E00074018A151B0464F041E0B701C6010E942F
:1018F0005F0AFFEFAF1ABF0A8BE0C80ED11CEFCF13
:101900000F5F1F4FEBE0EE0EF11CC017D1071CF765
:10191000C091C9018BE0C89FE00111240091C8016A
:10192000089F80011124C034D10524F4BE01C801F0
:101930000E948F055E01FCE0AF0EB11CBE01655F29
:101940007F4F603471051CF4C8010E948F057E0131
:10195000650181E4A816B1041CF080E4C82ED12CE6
:10196000EC14FD044CF441E0B701C8010E945F0A89
:10197000EFEFEE1AFE0AECCF055F1F4FCC15DD0529
:101980003CF441E0BE01C8010E945F0A2196F6CFF7
:10199000DF91CF911F910F91FF90EF90DF90CF904B
:1019A000BF90AF909F908F907F906F905F904F907F
:1019B00008950F931F932F3F320709F44AC0909167
:1019C00074019217130609F00CF443C00F3F10077F
:1019D00009F43FC09091750190171106D1F1CCF137
:1019E00099E0909FF001919FF00D1124ED58FE4F6A
:1019F000E20FF31F9481792F707F703F29F0929549
:101A00009F7059F481E026C09F70961306C042175C
:101A10001306C1F750171106A9F79091C90140911B
:101A2000C801F9E09F9F900111242D583E4F240FCB
:101A3000311DF901948192959F708230A9F0833015
:101A4000D1F0813051F09A30E9F29C30D9F29330E4
:101A5000C9F280E01F910F910895963099F2983065
:101A600089F29430B1F7CECF973061F29B3051F2CA
:101A7000913079F7C7CF953029F2993019F2923029
:101A800041F7C0CF282F30E0A62FB0E0F90189E060
:101A9000689FE00DF11D1124ED58FE4FE481E295A1
:101AA000EF70E150EC3000F5F0E0EB59F24F90911F
:101AB000CD0189E08A9FA0018B9F500D11244D58C4
:101AC0005E4F240F351F0C947F19770D790D710D22
:101AD000750D710D770D710D790D750D770D750DF6
:101AE000790D9063F901948308959064FBCF906120
:101AF000F9CF9062F7CF0C9469190E9485191F9253
:101B00000F920FB60F9211248F939F938091E10053
:101B10009091E100937F9093E10083FF0FC01092BA
:101B2000E90091E09093EB001092EC0092E3909327
:101B3000ED001092E40198E09093F00082FF22C043
:101B400093E09093E9009091F200992319F09AE3C1
:101B50009093E8009091D501992341F09091D5019F
:101B600091509093D501911101C05D9A9091E3013C
:101B7000992341F09091E30191509093E3019111E9
:101B800001C0289A84FF18C08091E2008E7E816097
:101B90008093E2008091E1008F7E8093E10080914C
:101BA000D6018E7E80618093D6019F918F910F9098
:101BB0000FBE0F901F90189580FFF7CF8091E20025
:101BC0008E7E80618093E2008091E1008E7E809322
:101BD000E1008091D6018E7E8160E5CF1F920F9249
:101BE0000FB60F921124CF92DF92EF92FF920F93D4
:101BF0001F932F933F934F935F936F937F938F9395
:101C00009F93AF93BF93EF93FF93CF93DF93CDB7A2
:101C1000DEB76C97DEBFCDBF1092E9008091E8007F
:101C200083FF25C068E0CE0145960E94200782EF21
:101C30008093E8008D8987FF39C09091E80090FF7C
:101C4000FCCF982F907609F034C19E894F89588D2A
:101C50002F89F88C911131C0803861F58091D401C1
:101C60008093F1001092F1008EEF8093E8006C9663
:101C70000FB6F894DEBF0FBECDBFDF91CF91FF91BD
:101C8000EF91BF91AF919F918F917F916F915F91F4
:101C90004F913F912F911F910F91FF90EF90DF9007
:101CA000CF900F900FBE0F901F9018959EEF9093BE
:101CB000E800C7CF1092F100D5CF913059F48111CF
:101CC000D3CF4130510581F68091D4018D7F80932F
:101CD000D401CACF933049F48111C6CF41305105A8
:101CE00019F68091D4018260F2CF953041F4809151
:101CF000E80080FFFCCF20682093E300B5CF96304A
:101D000009F0A9C00B8D1C8D22E01092E900109201
:101D1000D2011092D101F2122EC01092D001109275
:101D2000CF010E94EF061F8299E09983FA8291E029
:101D30009E8390EA98879AEF99872091D1013091FC
:101D4000D201275F3F4F3C832B838D831092E900A4
:101D50001092D2011092D1011093D0010093CF01C3
:101D600049E050E0BE016F5F7F4F80E00E94C906EE
:101D70000E94EF0679CF1093D0010093CF010E940B
:101D80000606DC0112960D911C910115110509F44E
:101D900051C1D801ED91FC910480F581E02DBE0187
:101DA0006B5E7F4FC8010995009709F03EC1F801AD
:101DB00000851185EACFF3E0FF120EC08F898823DA
:101DC00009F440C0823061F440E860E18EE79AE0B7
:101DD0000E946A10811148CF81E28093EB0047CFC7
:101DE000813029F440E86BE082E79AE0F1CF83305C
:101DF00099F70E940606DC011296ED90FC908E0188
:101E00000F5F1F4F6801E114F10479F0D701ED91E4
:101E1000FC910680F781E02DB801C7010995080FF4
:101E2000111DF701E084F184EECFD8011C92F60178
:101E300001900020E9F73197BF016C197D0940E05E
:101E4000C601C6CF6CE57AE0FB01449150E080E822
:101E50000E94C90609CF973009F4BECF983021F40B
:101E600081E08093F10000CF993009F0FDCE8370BE
:101E700009F0B2CFEDE3F1E081E031E096E32191AA
:101E8000222371F08093E9003093EB00DF0111977A
:101E90002C912093EC009093ED008F5F873079F7C1
:101EA0008EE78093EA001092EA008F898093E40124
:101EB000DBCE8B8D9C8D1092E9001092D201109296
:101EC000D1019093D0018093CF01898D811192C06F
:101ED0008E899D89913A49F4813209F07DCF47E09E
:101EE00050E064E071E080E0B3CF913209F074CF4C
:101EF000833269F48F89988DB0E0A0E0809300016F
:101F000090930101A0930201B0930301ADCE803202
:101F100069F48091E80082FFFCCF67E084E091E003
:101F20000E9420078BEF8093E8009ECE823209F05A
:101F30009BCE8F8980930B01EEEFFFE78591949103
:101F40008B3F9C4D51F1E0E0F8E0809104019091CD
:101F50000501A0910601B0910701803B9440A105C5
:101F6000B105F1F480910B0180FD1AC0EE3F8AE0CB
:101F7000F80789F587E797E7918380838091600070
:101F80008093D30188E19BE00FB6F894A8958093E5
:101F900060000FBE9093600067CEEEEFFAE0D5CF01
:101FA000808191818737974709F05ECEA89580910F
:101FB00060008861809360008091D301809360000D
:101FC000EE3F2AE0F20789F08091FE0A9091FF0A25
:101FD0009183808349CE808191818737980751F220
:101FE0009093FF0A8093FE0AC5CF1092FF0A1092C9
:101FF000FE0A3ACE0E940606DC0112960D911C9153
:102000000115110509F4E8CED801ED91FC9101907C
:10201000F081E02DBE016B5E7F4FC80109958111F3
:1020200023CEF80100851185EBCF181619060CF4A4
:102030001BCED2CEF1E0FF12BECE60E67AE004CF36
:102040001F920F920FB60F9211242F933F938F93ED
:102050009F93AF93BF9380916B0190916C01A0917E
:102060006D01B0916E0130916A0123E0230F2D378D
:1020700058F50196A11DB11D20936A0180936B0153
:1020800090936C01A0936D01B0936E0180916F01EC
:1020900090917001A0917101B09172010196A11D02
:1020A000B11D80936F0190937001A0937101B09363
:1020B0007201BF91AF919F918F913F912F910F909E
:1020C0000FBE0F901F90189526E8230F0296A11DB2
:1020D000B11DD2CFEF92FF920F931F93CF93DF9357
:1020E000F82E192FE62E042F81E0860F880F0E940C
:1020F0009B0683E00E949B06CF2DD12FEC0EFD2E78
:10210000F11CCE15DF05B9F007FF13C0FE01849165
:102110000E949B06182F80E00E949B068123219637
:102120008111EFCFDF91CF911F910F91FF90EF9031
:1021300008958881EDCF81E0F5CF0F931F93CF9362
:10214000DF938C0181E090E00E947B0D80FF32C024
:102150008AE090E00E947B0D9FEF980F9E3F50F524
:1021600022E330E0D80150963C932E931F9728E34A
:1021700030E052963C932E935197CBE0D0E0D801BB
:10218000ED91FC910190F081E02D682FC801099537
:10219000CE010E947B0D2196C131D10581F780E0EF
:1021A0000E94800588EE93E0DF91CF911F910F91FF
:1021B0000C94520ADF91CF911F910F9108950497CB
:1021C0000C949D10E5EEF5E01382128288EE93E008
:1021D000A0E0B0E084839583A683B78387E491E091
:1021E000918380838FEF9FEF95878487E5E3F6E007
:1021F000138212821186128680E1838710861782ED
:10220000158689E591E09183808387E691E0958347
:102210008483108A1786128A118A81E0838B148A3C
:10222000858B168A0895789484B5826084BD84B5C0
:10223000816084BD85B5826085BD85B5816085BDC1
:1022400080916E00816080936E0010928100809179
:102250008100826080938100809181008160809301
:102260008100809180008160809380008091910046
:1022700082608093910080919100816080939100B1
:10228000809190008160809390008091C100846073
:102290008093C1008091C10082608093C1008091D1
:1022A000C10081608093C1008091C30081608093F0
:1022B000C3008091C00082608093C0008091C20002
:1022C00081608093C20080917A00846080937A005C
:1022D00080917A00826080937A0080917A00816098
:1022E00080937A0080917A00806880937A001092BF
:1022F000E4011092D4011092D6018091D700816040
:102300008093D70080EA8093D80089B5806189BD29
:1023100089B5826089BD09B400FEFDCF61E070E03F
:1023200080E090E00E947F078091D8008F7C8061E0
:102330008093D8008091E000807F8093E0008091BE
:10234000E1008E7E8093E1008DE08093E200559A5B
:10235000209A81EC80937C0085B1806F85B984B12F
:10236000877E84B984B1876E84B95E9A5F988AB19A
:10237000806D8AB9769A6E9881B3806F81BB899897
:1023800080B38D7080BB80E58CBD81E08DBD85E024
:1023900090E00E94520A5F9A85E090E00E94520A03
:1023A0005E985C98EBE7F7E084918EBD00000DB479
:1023B00007FEFDCF319647E0E838F407A9F75C9AAD
:1023C00081E880936400809165008160809365005E
:1023D00080E00E9480050E94570A87FF15C05C9824
:1023E00085EA8EBD00000DB407FEFDCF5C9A2E98E5
:1023F0002F982D988091640080628093640081E022
:1024000083BF889513BEFCCF0E94570A82FF48C045
:102410002D980E94570A84788438E1F40E94500A6B
:1024200088EC90E00E94520A2F9882E090E00E948F
:1024300069198F3F29F06FEF82E090E00E947119D7
:1024400084EF91E00E94520A2F9A0E94570A8478E2
:102450008438D9F30E94570A84718431E1F40E94D0
:10246000500A88EC90E00E94520A2E9882E090E098
:102470000E946919882329F060E082E090E00E94C0
:10248000711984EF91E00E94520A2E9A0E94570A15
:1024900084718431D9F388EC90E00E94520AB4CF61
:1024A0000E94500A82E090E00E947B0D882309F48C
:1024B0005DC03E9A3F9A81E090E00E947B0D582FCC
:1024C0005470752E81FF11C051112E98C0EFDFEFAF
:1024D00008E010E06CE6E62EF12C0E94570A86FF19
:1024E00048C02E9A2F9A0E94500A82E390E00E94E0
:1024F000520A0E94570A8111F8CF0E947305109268
:102500004706109246061092450610924406109215
:10251000730185E08093740180937501C9E0AFE099
:102520005A2EB0E0CB2EB0E0DB2ED3E07D2ED2E0F1
:1025300080913E0680933F060E94570A80933E0694
:102540008091CE01823009F4A1C208F0A6C0882390
:1025500009F4B2C0813009F42DC280E00E948005E8
:10256000C114D10429F30E940000E2CF3E983F98A5
:10257000A2CF772029F0C430D10511F42E9A2F98DC
:1025800081E00E9480059E01D7FF04C022273327E7
:102590002C1B3D0B27703327CE01D7FD079653E048
:1025A000959587955A95E1F7D7FF05C00197F801F2
:1025B000E21BF30B9F01BC017695762F662777957A
:1025C00067956B517E4FB0E0A0E02801421A530A94
:1025D0008F3FFFEF9F070CF43CC048E550E0FD0142
:1025E000ED5DF84F5F014B01F0E88F0E911C8F3FBE
:1025F0009807A1F0F501E41BF50BE4916701C41AFB
:10260000D50AC60ED71EF0E01F01022E01C0220C13
:102610000A94EAF7F6016080262820822115310508
:10262000A9F0F501E41BF50BE4916701C41AD50A82
:10263000C80CD91CF0E01F01042C02C0359427946B
:102640000A94E2F7F6016080262820824150510961
:1026500071F60196A85ABF4F60587F4FA03BB10555
:1026600009F0B6CF80E00E9480058FE090E00E94E4
:10267000520A2196C931D10509F02FCF772011F0E8
:102680002F9A2D9880E991E00E94520A0E94500AE8
:1026900085E396E00E949D1028CF833009F46FC235
:1026A000843009F05ACF60E177E280E090E00E9448
:1026B0007F071092CE0151CF0E94730510924706FA
:1026C00010924606109245061092440620E04AED0C
:1026D00059E070E060E080E790E00E941E0A20E090
:1026E00048EB59E060E170E080E790E00E941E0A4C
:1026F00020E046E959E060E170E080E690E00E9469
:102700001E0A20E044E759E070E060E080E690E0D7
:102710000E941E0A20E042E559E070E060E080E59A
:1027200090E00E941E0A20E040E359E070E060E083
:1027300080E490E00E941E0A20E04EE059E070E044
:1027400060E080E390E00E941E0A20E04AED59E03C
:1027500060E170E080E390E00E941E0A20E046E91C
:1027600059E060E270E080E390E00E941E0A20E001
:1027700044E759E060E270E080E490E00E941E0AC5
:1027800020E04AED59E060E370E080E490E00E94D0
:102790001E0A20E04AED59E070E060E090E080E041
:1027A0000E941E0A20E04CEE58E060E170E090E0EC
:1027B00080E00E941E0A20E046E959E060E270E0F5
:1027C00090E080E00E941E0A20E040E359E060E2D1
:1027D00070E080E190E00E941E0A20E048EB59E0A2
:1027E00060E270E080E290E00E941E0A20E04EE08D
:1027F00059E060E170E080E290E00E941E0A20E073
:102800004AEC58E060E170E080E390E00E941E0A2C
:1028100020E042E559E060E170E080E490E00E9451
:102820001E0A20E044E759E060E170E080E590E0B6
:102830000E941E0A20E046E959E060E270E080E56F
:1028400090E00E941E0A20E040E359E060E270E060
:1028500080E690E00E941E0A20E042E559E060E236
:1028600070E080E790E00E941E0A20E048EA58E00D
:1028700070E060E090E080E00E941E0A20E044E703
:1028800059E070E060E080E190E00E941E0A20E0E4
:102890004CEE58E060E170E080E190E00E941E0A9A
:1028A00020E046E858E060E270E080E190E00E94BD
:1028B0001E0A20E046E959E060E370E080E190E024
:1028C0000E941E0A20E040E359E060E370E080E2ED
:1028D00090E00E941E0A20E042E559E060E370E0CB
:1028E00080E390E00E941E0A20E04AEC58E060E39A
:1028F00070E080E490E00E941E0A20E042E559E08A
:1029000060E370E080E590E00E941E0A20E044E76A
:1029100059E060E370E080E690E00E941E0A80E0EB
:102920000E94800580ED97E00E94520A03E110E0CA
:10293000F2E1EF2EF12C40E0B701C8010E945F0ADE
:10294000FFEFEF1AFF0A40E3E416F104A1F70F5F6F
:102950001F4F0F36110561F704E110E041E063E11C
:1029600070E0C8010E945F0A0E5F1F4F003711051B
:10297000A9F704E110E041E06EE270E0C8010E94B6
:102980005F0A0E5F1F4F00371105A9F720E048E8E6
:1029900057E065E170E087E190E00E941E0A80E068
:1029A0000E94800580ED97E00E94520A81E08093AA
:1029B000CE01D3CD0E9473051092470610924606B1
:1029C000109245061092440680917301859DC001C6
:1029D0001124DC011F96F090740130E020E08A178A
:1029E0009B070CF050C0FC01E450F64FE490632FBD
:1029F00070E0022F10E04E2D50E0E4E05595479531
:102A0000EA95E1F74115510521F5C69FA001C79F41
:102A1000500D11244D585E4F400F511FFA01148282
:102A200041E0420FF41670F050E0EE2DEF70E9F443
:102A3000C69FF001C79FF00D1124ED58FE4FE40F23
:102A4000F51F14822E5F2F1510F03F5F20E00196D6
:102A5000C6CFC69FF001C79FF00D1124ED58FE4F61
:102A6000E00FF11F406F4483DBCFC69F8001C79FFB
:102A7000100D11240D581E4F400F511F6E2F606F07
:102A8000FA016483DFCFD093CE0167CD80E20E944C
:102A9000C005882339F08091C801882319F081503E
:102AA0008093C80180E40E94C005882361F0809172
:102AB000C801209174012150330B821713061CF4B6
:102AC0008F5F8093C80180E80E94C005882339F099
:102AD0008091C901882319F081508093C90180E158
:102AE0000E94C005882361F08091C9012091750181
:102AF0002150330B821713061CF48F5F8093C9019A
:102B000088E00E94C005882309F478C3B090C90109
:102B1000A090C801EB2CF12C0A2D10E0CE9DF00105
:102B2000CF9DF00D1124ED58FE4FE00FF11F848171
:102B3000982F907F903F09F061C38F70709175015D
:102B4000A091740143E751E060E0761709F4B8C33F
:102B500030E020E02A1778F4FA01E20FF31F9481A5
:102B6000E92FEF708E1304C0907F903F09F09AC355
:102B70002F5F3F4FEFCF6F5F475F5F4FE6CF80E242
:102B80000E94C005882309F485C06090C901E62C25
:102B9000F12C4090C801842C912C5401F1E0AF1A23
:102BA000B1084091CB015091CC016091CD018701DA
:102BB000950182E00E94D90C882309F46BC0CE9D58
:102BC000F001CF9DF00D1124ED58FE4FE80DF91DD9
:102BD000E481E295EF70E150EF3020F5F0E0ED5048
:102BE000FA4E0C947F1902168E16C016A1168E1678
:102BF000A1160216A1168E16C0160216C0161216BF
:102C00001216DD16662D8FEF840D0E94420DCE9DAB
:102C1000C001CF9D900D11248D589E4F880E991E96
:102C2000F40114828091CB018A151B0461F4809118
:102C3000CC01681208C08091CD010E94A70B0E94B0
:102C4000A10BD093CE018091C901E091C801E15060
:102C5000C89FC00111248D589E4FE80FF92FF11D18
:102C60008481982F907F903F81F48F709091CD0157
:102C700089130BC00E94A10BD093CE010E94840B3C
:102C8000882319F084E08093CE018091C80181509F
:102C90008093C80180E40E94C005882309F4DFC046
:102CA0006090C901E62CF12C4090C801842C912C35
:102CB0005401FFEFAF1ABF0A4091CB015091CC01F4
:102CC0006091CD018701950183E00E94D90C882392
:102CD00009F4C5C0CE9DF001CF9DF00D1124ED5833
:102CE000FE4FE80DF91DE481E295EF70E150EF3001
:102CF00008F07DC0F0E0E158F94E0C947F1973178D
:102D0000E716A5178617E716861773178617E716AF
:102D1000A5177317A517F716F716C217CE9DF00162
:102D2000CF9DF00D1124ED58FE4FEA0DF11D848169
:102D3000807F803F09F476CF8091CD0180628483CB
:102D400071CF2091CD01CE9DF001CF9DF00D1124CA
:102D5000ED58FE4FEA0DF11D8481807F803F19F010
:102D6000822F80628483CE9DC001CF9D900D11245F
:102D70008D589E4F880E991E2069F401248352CFEE
:102D80002091CD01CE9DF001CF9DF00D1124ED5885
:102D9000FE4FEA0DF11D8481807F803F19F0822F64
:102DA00080628483CE9DC001CF9D900D11248D58EB
:102DB0009E4F880E991E2065E0CFCE9DF001CF9DDD
:102DC000F00D1124ED58FE4FEA0DF11DB5CF662D23
:102DD00081E0840D0E94420DCE9DC001CF9D900DDB
:102DE00011248D589E4F880E991EF40114828091F3
:102DF000CB018A151B0461F48091CC01681208C0D4
:102E00008091CD010E94A70B0E94A10BD093CE010F
:102E10008091C901E091C801EF5FC89FC0011124F2
:102E20008D589E4FE80FF92FF11D8481982F907FC8
:102E3000903F81F48F709091CD0189130BC00E9457
:102E4000A10BD093CE010E94840B882319F084E05B
:102E50008093CE018091C8018F5F8093C80180E884
:102E60000E94C005882309F4DFC06090C901862C48
:102E7000912C5401F1E0AF1AB1084090C801E42C44
:102E8000F12C4091CB015091CC016091CD01850195
:102E9000970180E00E94D90C882309F4C5C0C89D21
:102EA000F001C99DF00D1124ED58FE4FEE0DFF1DF0
:102EB000E481E295EF70E150EF3008F07DC0F0E082
:102EC000EC59F84E0C947F1969188618CC175818CD
:102ED00086185818691858188618CC176918CC170E
:102EE000DC17DC17A118CE9DF001CF9DF00D112449
:102EF000ED58FE4FEA0DF11D8481807F803F09F47B
:102F000076CF8091CD018061848371CF2091CD01F6
:102F1000CE9DF001CF9DF00D1124ED58FE4FEA0D2E
:102F2000F11D8481807F803F19F0822F806184832E
:102F3000CE9DC001CF9D900D11248D589E4F880EBF
:102F4000991E206BF401248352CF2091CD01CE9D98
:102F5000F001CF9DF00D1124ED58FE4FEA0DF11D4B
:102F60008481807F803F19F0822F80618483CE9D91
:102F7000C001CF9D900D11248D589E4F880E991E33
:102F80002067E0CFCE9DF001CF9DF00D1124ED58CC
:102F9000FE4FEA0DF11DB5CF6FEF660D842D0E9437
:102FA000420DC89DC001C99D900D11248D589E4FA2
:102FB000E80EF91EF70114828091CB0148120DC072
:102FC0008091CC018A151B0441F48091CD010E94AF
:102FD000A70B0E94A10BD093CE018091C901815013
:102FE0002091C801C89FC00111248D589E4F820FA7
:102FF000911DFC018481982F907F903F81F48F7008
:103000009091CD0189130BC00E94A10BD093CE01EA
:103010000E94840B882319F084E08093CE01809174
:10302000C90181508093C90180E10E94C0058823B5
:1030300009F4D7C06090C901862C912C5401FFEF90
:10304000AF1ABF0A4090C801E42CF12C4091CB018B
:103050005091CC016091CD018501970181E00E94E2
:10306000D90C882309F4BDC0C89DF001C99DF00D9D
:103070001124ED58FE4FEE0DFF1DE481E295EF7037
:10308000E150EF3008F075C0F0E0E75BF74E0C94CC
:103090007F1912192F190119A9182F19A918121916
:1030A000A9182F19011912190119B918B9184A19B3
:1030B000F701AC9EE00DF11D1124ED58FE4F848107
:1030C000807F803F09F478CF8091CD018064848334
:1030D00073CF2091CD01F701AC9EE00DF11D1124BD
:1030E000ED58FE4F8481807F803F19F0822F8064ED
:1030F0008483C89DC001C99D900D11248D589E4F99
:10310000E80EF91E2066F701248356CF2091CD01E9
:10311000F701AC9EE00DF11D1124ED58FE4F8481A6
:10312000807F803F19F0822F80648483C89DC00116
:10313000C99D900D11248D589E4FE80EF91E2068F0
:10314000E2CFF701AC9EE00DF11D1124ED58FE4FCA
:10315000BBCF61E0660D842D0E94420DC89DC00169
:10316000C99D900D11248D589E4FE80EF91EF70150
:1031700014828091CB0148120DC08091CC018A1538
:103180001B0441F48091CD010E94A70B0E94A10B6A
:10319000D093CE018091C9018F5F2091C801C89F53
:1031A000C00111248D589E4F820F911DFC01848116
:1031B000982F907F903F81F48F709091CD0189136B
:1031C0000BC00E94A10BD093CE010E94840B8823D8
:1031D00019F084E08093CE018091C9018F5F8093C4
:1031E000C90184E00E94C005882341F08091CD018F
:1031F0000E94A70B0E94A10BD093CE010E94C80B86
:10320000ACC9F701AC9EE00DF11D1124ED58FE4F45
:103210008481807F803F09F4ACCF8091CD018063B1
:103220008483A7CF2091CD01F701AC9EE00DF11D65
:103230001124ED58FE4F8481807F803F19F0822F4A
:1032400080638483C89DC001C99D900D11248D5851
:103250009E4FE80EF91E206AF70124838ACF209141
:10326000CD01F701AC9EE00DF11D1124ED58FE4F8C
:103270008481807F803F19F0822F80638483C89D82
:10328000C001C99D900D11248D589E4FE80EF91E66
:10329000206CE2CFF701AC9EE00DF11D1124ED583A
:1032A000FE4FBBCF0E94A70BCE9DC001CF9D900DBE
:1032B00011248D589E4F080F191FF80184818F70BB
:1032C0008093CD01A092CB01B092CC017092CE013F
:1032D00095CFF999FECF92BD81BDF89A992780B517
:1032E0000895262FF999FECF1FBA92BD81BD20BD4A
:1032F0000FB6F894FA9AF99A0FBE01960895EE0F58
:10330000FF1F0590F491E02D099481E090E0F8947E
:083310000C948A19F894FFCF18
:10331800FFFFFFFF00E100000000000000000601C1
:10332800FC00F200E800DE00D400CA00C000B600CD
:10333800AC00AC0192019201780178015E015E0156
:10334800440144012A012A011001100100C18081B1
:10335800000000000000001A06B2073B0630068194
:10336800063F065D06000000007D0A2D07810B80E0
:0A3378000B9D10FCFF0000DF1000A9
:2070000055C000006EC000006CC000006AC0000068C0000066C0000064C0000062C0000043
:2070200060C000005EC00000F2C400005AC0000058C0000056C0000054C0000052C00000EE
:2070400050C0000078C000004CC000004AC0000048C0000046C0000044C0000042C00000BE
:2070600040C000003EC000003CC000003AC0000038C0000036C0000034C0000032C0000048
:2070800030C000002EC000002CC000002AC0000028C0000026C0000024C0000022C00000A8
:2070A00020C000001EC000001CC0000011241FBECFEFDAE0DEBFCDBF11E0A0E0B1E0E2E3BC
:2070C000FFE702C005900D92A83AB107D9F711E0A8EAB1E001C01D92AE3BB107E1F78FD30B
:2070E00026C78ECFF89410926F0010928100109285001092840081E085BF15BE47985D9AEB
:20710000289A0C94000008952091B2013091B3012F5F3F4F3093B3012093B201932F37FFA6
:2071200003C08EEF831B982F990F921710F447980895479A08951F920F920FB60F9211246E
:207140002F938F939F93EF93FF9310928500109284008091A8019091A901009741F00197D3
:207160009093A9018093A801892B09F45D9A8091AA019091AB01009741F001979093AB0126
:207180008093AA01892B09F4289AE0E0F0E0859194918F5F9F4F49F08091AC019091AD0151
:2071A00001969093AD018093AC01FF91EF919F918F912F910F900FBE0F901F90189584E0BC
:2071C0008093E9000DC08091E8008B778093E80003C08EB3882351F08091E80082FFF9CFBE
:2071E0008091E80085FFEFCF8091F1000895982F83E08093E9008091E80085FD0DC0809136
:20720000E8008E778093E80003C08EB3882369F08091E80080FFF9CF9093F1005D9884E6CB
:2072200090E09093A9018093A80108954F925F926F927F928F929F92AF92BF92CF92DF921E
:20724000EF92FF920F931F93CF93DF9384E08093E9008091E80082FF57C2289884E690E067
:207260009093AB018093AA01AADF182F853481F48CE49DE19093AD018093AC0107B600FC4B
:20728000FDCFF999FECF81E180935700E89503C0843519F494DF8DE00DC28C34E1F38035F9
:2072A000D1F3843721F484E4A2DF80E003C2813611F489E5FFC18134B1F481DF182F7FDFE3
:2072C00090E0880F991FAA2797FDA095BA2F312F330F20E0442737FD4095542F822B932B68
:2072E000A42BB52BB8C1803711F483E5E3C1833549F4C0E0D1E089917ADF21E0C730D20714
:20730000D1F7D9C1863521F481E371DF80E3D2C1833731F487E86BDF85E969DF8EE1CAC149
:207320008536B9F4E0E0F0E093E085E090935700E89507B600FCFDCF80935700E89507B65D
:2073400000FCFDCFE058FF4FA0E7E030FA0771F7A2CF823739F4E1E0F0E089E08093570024
:207360008491A8C1863439F4E0E0F0E089E08093570084919FC18E3439F4E3E0F0E089E0E5
:2073800080935700849196C1813539F4E2E0F0E089E08093570084918DC1823631F489E521
:2073A00026DF80E024DF80E885C1823419F0873609F0E5C01092AD011092AC0100DF082FE8
:2073C000FEDEF82EFCDE682E8554823008F071C1902F80E0CF2DD0E0C82BD92B10926F00B3
:2073E000173609F04BC081E180935700E895DD24CC24C3943FC0E090AE01F090AF010091CC
:20740000B0011091B101B6E46B16D9F4ED2DF0E0EE29FF29E4918E2FEADEDD2081F082E08D
:2074200090E0A0E0B0E0E80EF91E0A1F1B1FE092AE01F092AF010093B0011093B101DC2470
:2074400018C0D801C701B695A7959795879559D5CEDE82E090E0A0E0B0E0E80EF91E0A1FF2
:207460001B1FE092AE01F092AF010093B0011093B1012197209709F0BECF7DC08090AE01F5
:207480009090AF01A090B001B090B10196E4691609F05DC083E0F40180935700E89507B63E
:2074A00000FCFDCF54C0F6E46F1661F5772031F1E090AE01F090AF010091B0011091B1019E
:2074C0007EDED82ECC24852D90E08C299D29F7010C0140925700E895112482E090E0A0E08B
:2074E000B0E0E80EF91E0A1F1B1FE092AE01F092AF010093B0011093B10102C060DE582E1A
:20750000742423C0E090AE01F090AF010091B0011091B10116950795F794E79450DE682FFA
:20752000C701F7D48091AE019091AF01A091B001B091B1010296A11DB11D8093AE01909349
:20754000AF01A093B001B093B101219704C05524772444244394209709F0A5CF96E46916B6
:2075600041F485E0F40180935700E89507B600FCFDCF8DE03CDE82E080936F009CC0833492
:2075800071F40091AE011091AF0119DE90E021E0F8010C0120935700E89511247CCE8336C8
:2075A00019F5E090AE01F090AF010091B0011091B10105DEF701E16090E021E00C0120938C
:2075C0005700E895112482E090E0A0E0B0E0E80EF91E0A1F1B1FE092AE01F092AF0100936A
:2075E000B0011093B10157CE8D3661F4E091AE01F091AF0185E080935700E89507B600FCF2
:20760000FDCF49CE823551F4E091AE01F091AF0105911491812FEBDD802F4CC0843421F5FE
:20762000E090AE01F090AF010091B0011091B10116950795F794E794C2DD682FC70169D4DE
:207640008091AE019091AF01A091B001B091B1010296A11DB11D8093AE019093AF01A093D8
:20766000B001B093B10117CE843609F5E090AE01F090AF010091B0011091B101D801C70142
:20768000B695A795979587953CD4B1DD82E090E0A0E0B0E0E80EF91E0A1F1B1FE092AE010A
:2076A000F092AF010093B0011093B10104C08B3111F08FE39CDD83E08093E9009091E8002B
:2076C0008091E8008E778093E80095FF04C010C08EB38823C9F08091E80080FFF9CF809193
:2076E000E8008E778093E80003C08EB3882361F08091E80080FFF9CF84E08093E9008091F1
:20770000E8008B778093E800DF91CF911F910F91FF90EF90DF90CF90BF90AF909F908F90AC
:207720007F906F905F904F9008959091B601892F8F77813249F58091B7018032A1F081328A
:2077400019F5913A09F58091E800877F8093E8008DE091E067E070E00BD28091E8008B770B
:207760008093E8000895913279F48091E800877F8093E8008DE091E067E070E05DD2809192
:20778000E8008E778093E800089582E061EC42E0B5D083E061E842E1B1D084E060E842E1EF
:2077A000ADC084B7877F84BF88E10FB6F89480936000109260000FBE20E880E090E00FB63F
:2077C000F89420936100809361000FBE81E085BF92E095BF3F9A209A559AE1E6F0E02083A1
:2077E000108247985D9A289A109289008AEF8093880090936F0083E080938100F0C0409116
:20780000000850910108109201081092000894B714BE88E10FB6F8948093600010926000D5
:207820000FBE292F30E0F901E270F07091FD18C090FF05C0859194918F5F9F4F81F423FFFF
:207840000FC08091090190910A014817590741F0E0E0F0E0859194918F5F9F4F09F042DC64
:20786000A0DF78941092AD011092AC010CC0DEDC36D38091AC019091AD0181549F4110F00D
:207880001092140141DC80911401882381F78091E00081608093E00025DC80E090E0089598
:2078A000FA01923049F0933061F09130F9F485E191E022E130E01EC087E291E02EE330E04D
:2078C00019C0882329F485E691E024E030E012C0813029F489E691E022E230E00BC0823006
:2078E00029F48DE891E028E130E004C080E090E020E030E091838083C90108958093E9004E
:207900008091EB0081608093EB001092ED006093EC004093ED008091EE00881F8827881F62
:2079200008958091B60188238CF403C08EB38823B1F08091E80082FFF9CF8091E8008B772A
:207940008093E80008958EB3882349F08091E80080FFF9CF8091E8008E778093E800089594
:20796000EF92FF920F931F9345D04CD008ED10E0F80180818F77808380818068808380819B
:207980008F7D808319BC1EBA1092B40180EEE82EF12CF70180818B7F8083F8018081816052
:2079A000808380E060E042E0A9DFE1EEF0E080818E7F8083E2EEF0E0808181608083808144
:2079C00088608083F70180818E7F8083F8018081806180831F910F91FF90EF900895E7ED06
:2079E000F0E08081816080838AE482BF81E08093B501B6CFE8EDF0E080818E7F808310921C
:207A0000E20008951092DA001092E10008951F920F920FB60F9211242F933F934F935F93F6
:207A20006F937F938F939F93AF93BF93EF93FF938091DA0080FF1BC08091D80080FF17C0B2
:207A40008091DA008E7F8093DA008091D90080FF0BC080E189BD82E189BD09B400FEFDCF36
:207A600081E08EBB3BD203C019BC1EBA37D28091E10080FF17C08091E20080FF13C0809138
:207A8000E2008E7F8093E2008091E20080618093E2008091D80080628093D80019BC85E049
:207AA0008EBB1CD28091E10084FF2CC08091E20084FF28C080E189BD82E189BD09B400FEC5
:207AC000FDCF8091D8008F7D8093D8008091E1008F7E8093E1008091E2008F7E8093E20012
:207AE0008091E20081608093E2008091B401882331F48091E30087FD02C081E001C084E067
:207B00008EBBECD18091E10083FF21C08091E20083FF1DC08091E100877F8093E10082E06A
:207B20008EBB1092B4018091E1008E7F8093E1008091E2008E7F8093E2008091E2008061E9
:207B40008093E20080E060E042E0D8DEC7D1FF91EF91BF91AF919F918F917F916F915F9130
:207B60004F913F912F910F900FBE0F901F9018959C014091BC015091BD014617570718F49D
:207B8000F90190E044C06115710511F0AB01F8CF8091E8008E778093E80040E050E0F0CF0F
:207BA0008EB3882309F444C0853009F443C08091E80083FF02C081E008958091E80082FD70
:207BC00031C08091E80080FF22C08091F3009091F200782F60E0292F30E0262B372B07C07A
:207BE00081918093F100415050402F5F3F4F4115510519F02830310598F390E02830310566
:207C000009F491E08091E8008E778093E8004115510531F6992321F605C08EB3882341F075
:207C2000853041F08091E80082FFF7CF80E0089582E0089583E008959C016115710529F47C
:207C40008091E8008B778093E800F90126C08EB3882391F1853091F18091E80083FF02C06C
:207C600081E008958091E80082FFF1CF06C08091F10081936150704059F02091F300809191
:207C8000F200322F20E090E0822B932B892B79F78091E8008B778093E80061157105B9F601
:207CA00005C08EB3882341F0853041F08091E80080FFF7CF80E0089582E0089583E00895C2
:207CC0000F931F93DF93CF9300D0CDB7DEB7E6EBF1E08091F100819381E0EE3BF807C9F792
:207CE00024DD8091E80083FFE4C08091B6019091B701953009F46DC0963040F4913081F1A7
:207D0000913070F0933009F0D4C02AC0983009F4A3C0993009F4B2C0963009F0CAC07CC023
:207D2000803809F4C6C0823809F0C3C08091BA0187708093E9008091EB001092E9002091DB
:207D4000E800277F2093E80090E025E0969587952A95E1F781708093F1001092F10087C0D8
:207D6000882319F0823009F0A4C08F71823009F0A0C08091B801882331F52091BA01277097
:207D800009F497C02093E9008091EB0080FF1BC0933021F48091EB00806213C08091EB0018
:207DA00080618093EB0081E090E002C0880F991F2A95E2F78093EA001092EA008091EB00E5
:207DC00088608093EB001092E9008091E800877F51C0882309F06DC01091B8011F770FB79B
:207DE000F8948091E800877F8093E8009ADD8091E80080FFFCCF8091E3008078812B809398
:207E0000E30080688093E300112311F482E001C083E08EBB0FBF4DC08058823008F049C033
:207E20008091B8019091B9016091BA01AE014F5F5F4F36DDBC01009709F43BC08091E8008E
:207E4000877F8093E80089819A8192DE8091E8008B778093E8002DC0803859F58091E800AA
:207E6000877F8093E8008091B4018093F1008091E8008E778093E80054DD1BC08823C9F4CA
:207E80009091B8019230A8F48091E800877F8093E8009093B40145DD8091B401882331F420
:207EA0008091E30087FD02C081E001C084E08EBB6CDC8091E80083FF0AC08091EB0080624E
:207EC0008093EB008091E800877F8093E8000F900F90CF91DF911F910F91089508951F9360
:207EE0008EB3882361F01091E9001092E9008091E80083FF01C0E4DE17701093E9001F916F
:207F00000895F999FECF92BD81BDF89A992780B50895262FF999FECF1FBA92BD81BD20BDBD
:207F20000FB6F894FA9AF99A0FBE01960895F894FFCF4341544552494E4100777700080031
:207F40000000000000080112011001020000084123360001000201000109023E00020100FF
:207F600080320904000001020201000524001001042402040524060001070582030800FF0C
:207F800009040100020A000000070504021000010705830210000104030904220341007216
:207FA000006400750069006E006F0020004C0065006F006E006100720064006F0000001836
:1A7FC00003410072006400750069006E006F0020004C004C004300000000D7
:00000001FF
